:100000000C94F6170C9420180C9420180C942018BB
:100010000C943B3E0C943B3E0C943B3E0C943B3E7C
:100020000C9420180C949ABE0C9420180C94201850
:100030000C9420180C94322C0C9420180C9420183A
:100040000C9420180C9407250C94FDC10C942018D6
:100050000C94EB8C0C94E18C0C9420180C942018CC
:100060000C9420180C9420180C9420180C94201830
:100070000C9420180C9420180C9420180C94201820
:100080000C9420180C9420180C9420184E414E49C2
:100090004E495459494E46CDCCCC3D0AD7233C1746
:1000A000B7D13877CC2B329595E6241FB14F0A0093
:1000B0000020410000C84200401C4620BCBE4CCA83
:1000C0001B0E5AAEC59D7400407A10F35A00A07200
:1000D0004E18090010A5D4E80000E8764817000083
:1000E000E40B54020000CA9A3B000000E1F5050051
:1000F0000080969800000040420F000000A086019A
:10010000000000102700000000E803000000006469
:1001100000000000000A00000000000100000000D4
:10012000002C76D888DC674F0823DFC1DFAE59E1A9
:10013000B1B796E5E3E453C63AE651997696E8E618
:10014000C28426EB898C9B62ED407C6FFCEFBC9CEB
:100150009F40F2BAA56FA5F490055A2AF75C936BFD
:100160006CF9676DC11BFCE0E40D47FEF520E6B5B8
:1001700000D0ED902E0300943577050080841E0892
:100180000000204E0A000000C80C333333330F98B0
:100190006E12831141EF8D2114893BE65516CFFE77
:1001A000E6DB18D1844B381BF77C1D901DA4BBE403
:1001B00024203284725E228100C9F124ECA1E53D45
:1001C0002741425300504C410045205374657073E1
:1001D0002F6D6D005A2053746570732F6D6D00592B
:1001E0002053746570732F6D6D00582053746570C3
:1001F000732F6D6D004572772E2045696E7374659F
:100200006C6C756E67656E003F004162627265637B
:1002100068656E0042657374C3A4746967656E0097
:100220004D343238005765726B7365696E7374654F
:100230006C6C756E67656E0046696C616D656E7499
:100240000053746570732F6D6D004A756E63746929
:100250006F6E204465760042657363686C65756EE9
:100260006967756E6700476573636877696E64696F
:10027000676B656974005365747A6520486F6D65B6
:100280007665727361747A004B6F6E66696775721A
:100290006174696F6E00426574740044C3BC736519
:1002A000004CC3BC66746572004B6F6E66696775FF
:1002B000726174696F6E005374616E646172647709
:1002C00065727465206C6164656E004B6F6E666963
:1002D000672E206C6164656E004B6F6E6669672ED9
:1002E0002073706569636865726E00242045696ECD
:1002F0007374656C6C756E67656E004572772E2041
:1003000045696E7374656C6C756E67656E004861E7
:100310007570746D656EC3BC003F005A7572C3BCC6
:10032000636B0053746F70004D323100447275631B
:100330006B20766F6D204D656469756D004D656449
:1003400069756D2066726569676562656E004D321C
:1003500032004B6F6E66696775726174696F6E000B
:1003600054656D706572617475720042657765677A
:10037000756E670053442D447275636B20666F720F
:10038000747365747A656E004D656469756D206976
:100390006E697469616C2E004A7573746965727553
:1003A0006E670053442D447275636B206162627204
:1003B000656368656E0053442D447275636B2070ED
:1003C000617573696572656E00496E666F003F0006
:1003D00053746172746520447275636B004162628C
:1003E00072656368656E00447275636B656E004389
:1003F000616E6E6F7420656E7465722073756264D1
:1004000069723A2000022E2E0001416B7475616CF6
:100410006973696572656E0048617570746D656EAB
:10042000C3BC004265776567756E67004D6F746F7A
:1004300072656E206465616B746976696572656E5C
:10044000004D3834004175746F20486F6D6500476A
:1004500032380048617570746D656EC3BC0024202D
:10046000457874722E20566F7277C3A4726D656ED4
:100470000024204265747420566F7277C3A4726D95
:10048000656E0054656D7065726174757200C501AA
:10049000C10141626BC3BC686C656E002420566F5D
:1004A0007277C3A4726D656E004CC3BC66746572CE
:1004B00000426574740044C3BC7365004861757084
:1004C000746D656EC3BC004261627973746570209F
:1004D0005A00466C75737372617465004CC3BC66D8
:1004E00074657200426574740044C3BC7365004750
:1004F00065736368772E0048617570746D656EC3AF
:10050000BC002568753A25303268750025303268A0
:10051000753A2530326875002568756420253032BB
:1005200068753A2530326875002020202020202070
:100530000020202020001FE020102010201010207C
:1005400010202010201030300840048003001FE0ED
:100550003FF03FF03FF01FE01FE03FF03FF03FF083
:100560000FC0078003003FFFF038007030FC3020E0
:10057000FC102078102030102C00D02E31D02F7B92
:10058000D02F7BD02E31D02C00D0203010207810EE
:1005900020FC1030FC303800703FFFF03FFFF03897
:1005A00000703186302387102787902F87D02F0344
:1005B000D02030102078102078102030102F03D059
:1005C0002F87D02787902387103186303800703FDF
:1005D000FFF01FFFF81FFFF8041040020820020878
:1005E00020041040082080104100104100082080A5
:1005F0000410400000001FFFF81FFFF844727563ED
:100600006B206162676562726F6368656E004D3270
:10061000350050617573652E2E2E00454550524FA2
:100620004D2056657273696F6E204572726F72004D
:10063000454550524F4D20496E6465782045727291
:100640006F7200454550524F4D2043524320457232
:10065000726F72003F0049676E6F7265005265737A
:100660006574656E005765726B7365696E7374654A
:100670006C6C756E67656E006F70656E00545249E4
:10068000474745524544003A20007A5F6D696E0045
:10069000795F6D696E00785F6D696E005265706F8D
:1006A0007274696E6720656E6473746F7020737402
:1006B000617475730A00486F6D696E6720676573B2
:1006C000636865697465727400000004C2000020EC
:1006D000C1000000000000C8420000C842000080C5
:1006E000405761726E696E673A20486F6D696E6738
:1006F0002042756D702044697669736F72203C20CA
:10070000310A000202040000A0400000A0400000E6
:10071000004000007D430000664300007043FFFF7F
:10072000FF00005C4300005C4300007043000004D5
:10073000C2000020C10000000045696E7374656C42
:100740006C2E206765737065692E00290A0020628F
:10075000797465733B206372632000536574746918
:100760006E67732053746F7265642028004545508E
:10077000524F4D206461746173697A6520657272AD
:100780006F722E0A00290A002062797465733B207B
:1007900063726320002073746F72656420736574E4
:1007A00074696E677320726574726965766564201A
:1007B0002800202863616C63756C6174656429216D
:1007C0000A0020213D2000454550524F4D20435204
:1007D00043206D69736D61746368202D20287374E4
:1007E0006F7265642920002053697A653A200049B8
:1007F0006E6465783A2000204D61726C696E3D56DA
:100800003831290A00454550524F4D2076657273A4
:10081000696F6E206D69736D61746368202845454A
:1008200050524F4D3D0048617264636F64656420AF
:1008300044656661756C742053657474696E677382
:10084000204C6F616465640A000000C8430000C862
:100850004300000041000048420000C8420000C8B8
:10086000420000C8430000C842D0070000D0070083
:100870000064000000102700003B200020440020FE
:10088000490020204D3330342050002044002049BE
:100890000020204D333031205000504944207365F2
:1008A0007474696E67733A00204600204200204845
:1008B0000020204D3134352053004D61746572693C
:1008C000616C2068656174757020706172616D651E
:1008D000746572733A0020204D323036205800483B
:1008E0006F6D65206F66667365743A00204A00205C
:1008F000530020204D323035204200416476616E35
:100900006365643A20423C6D696E5F7365676D652F
:100910006E745F74696D655F75733E20533C6D69DD
:100920006E5F66656564726174653E20543C6D69F6
:100930006E5F74726176656C5F6665656472617422
:10094000653E204A3C6A756E635F6465763E0020B2
:10095000540020520020204D32303420500041639A
:1009600063656C65726174696F6E2028756E697459
:10097000732F7332293A20503C7072696E745F6134
:100980006363656C3E20523C726574726163745F90
:10099000616363656C3E20543C74726176656C5F84
:1009A000616363656C3E0020204D32303120580079
:1009B0004D6178696D756D20416363656C65726129
:1009C00074696F6E2028756E6974732F7332293ABB
:1009D0000020204D3230332058004D6178696D750C
:1009E0006D206665656472617465732028756E6933
:1009F00074732F73293A0053746570732070657295
:100A000020756E69743A0020440020204D32303049
:100A10002053002044697361626C65640A00466972
:100A20006C616D656E742073657474696E67733A7A
:100A30000020204D3134392043203B20556E69740D
:100A40007320696E2043656C736975730A002028F2
:100A50006D6D29002020473231202020203B205579
:100A60006E69747320696E206D6D0024F4D430506B
:100A7000C38E20C2A24017828B7011127A910D8111
:100A80006CD90AA861E108C7586607615143061E80
:100A90004B5D05C145A7041A411104093D98037136
:100AA0003931034036DB0265339102D43054028081
:100AB0002E1D02632CEE01752AC501B028A001107D
:100AC0002781018F2564012B244B01E0223401ACE6
:100AD000211F018D200D01801FFC00841EED009759
:100AE0001DDF00B81CD200E61BC600201BBC006442
:100AF0001AB200B219A8000A19A0006A189900D108
:100B000017910040178B00B516840031167E00B394
:100B10001579003A157300C7146F0058146A00EE77
:100B20001366008813630025135E00C7125B006C18
:100B300012570015125400C111510070114F0021BD
:100B4000114B00D61049008D10470046104400029A
:100B5000104200C00F4000800F3E00420F3C0006D4
:100B60000F3B00CB0E3800930E37005C0E3500278C
:100B70000E3400F30D3200C10D3100900D300060D5
:100B80000D2E00320D2D00050D2C00D90C2B00AEC2
:100B90000C2900850C29005C0C2700350C27000E61
:100BA0000C2600E80B2400C40B2400A00B23007DBE
:100BB0000B23005A0B2100390B2100180B2000F8E1
:100BC0000A1F00D90A1E00BB0A1E009D0A1D0080D4
:100BD0000A1D00630A1C00470A1B002C0A1B001197
:100BE0000A1A00F7091A00DD091900C4091900AB37
:100BF000091900920917007B091800630917004CB6
:100C000009160036091600200916000A091500F514
:100C1000081500E0081400CC081400B8081400A45B
:100C2000081400900813007D0812006B0813005888
:100C3000081200460812003408110023081100129F
:100C400008110001081100F0071000E0071000D0A3
:100C5000071000C0071000B0070F00A10710009197
:100C6000070E0083070F0074070F0065070E00577B
:100C7000070E0049070E003B070D002E070E00204F
:100C8000070D0013070D0006070D00F9060C00ED17
:100C9000060D00E0060C00D4060C00C8060C00BCD3
:100CA000060C00B0060C00A4060B0099060C008D83
:100CB000060B0082060B0077060B006C060B00612A
:100CC000060A0057060B004C060A0042060A0038C6
:100CD000060A002E060A0024060A001A060A001058
:100CE00006090007060A00FD050900F4050900EBE6
:100CF000050900E2050900D9050900D0050900C76A
:100D0000050900BE050900B5050800AD050800A5E8
:100D10000509009C050800940508008C050800845E
:100D20000508007C050800740508006C05070065CF
:100D30000508005D050700560508004E0507004739
:100D40000507004005080038050700310507002A9F
:100D5000050700230507001C050600160507000F00
:100D60000507000805060002050700FB040600F55C
:100D7000040700EE040600E8040600E2040700DBB6
:100D8000040600D5040600CF040600C9040600C30B
:100D9000040600BD040600B7040600B1040500AC5B
:100DA000040600A6040600A00405009B04060095A6
:100DB000040500900406008A0405008504050080EF
:100DC0000406007A04050075040500700405006B34
:100DD00004050066040500610405005C0405005775
:100DE000040500520405004D0405004804050043B5
:100DF0000405003E0404003A0405003504050030F3
:100E00000404002C04050027040400230405001E2C
:100E10000404001A04040016040500110404000D63
:100E2000040400090405000404040000040400FC98
:100E3000030400F8030400F4030400F0030400ECCE
:100E4000030400E8030400E4030400E0030400DCFE
:100E5000030400D8030400D4030400D0030400CC2E
:100E6000030400C8030300C503030024F404D920CD
:100E70001BC40C5C0E9804C4095F0265077101F481
:100E800005F900FB04B30048048700C1036900585A
:100E900003550003034500BE023A008402310053AB
:100EA000022A002902250004022000E4011C00C8D7
:100EB000011900AF0117009801140084011300719B
:100EC0000110006101100051010E0043010D0036B8
:100ED000010B002B010B0020010B00150109000C78
:100EE00001090003010800FB000800F3000800EB03
:100EF000000700E4000600DE000600D8000600D26D
:100F0000000600CC000500C7000500C2000500BDBA
:100F1000000400B9000400B5000400B1000400ADF5
:100F2000000400A9000400A5000300A20003009F24
:100F30000004009B0003009800030095000200934A
:100F4000000300900003008D0002008B0003008866
:100F50000002008600020084000300810002007F7E
:100F60000002007D0002007B000200790002007791
:100F7000000100760002007400020072000100719E
:100F80000002006F0002006D0001006C0002006AA8
:100F900000010069000200670001006600010065B1
:100FA00000010064000200620001006100010060B5
:100FB0000001005F0002005D0001005C0001005BB9
:100FC0000001005A000100590001005800010057BB
:100FD00000010056000100550001005400010053BB
:100FE00000000053000100520001005100010050B8
:100FF0000001004F0001004E0000004E0001004DB6
:101000000001004C0001004B0000004B0001004AB1
:1010100000010049000100480000004800010047AD
:1010200000010046000000460001004500000045A8
:1010300000010044000100430000004300010042A1
:10104000000000420001004100000041000100409A
:101050000001003F0000003F0001003E0000003E94
:101060000001003D0000003D0001003C0000003C8C
:101070000000003C0001003B0000003B0001003A82
:101080000000003A0001003900000039000100387A
:101090000000003800000038000100370000003771
:1010A0000001003600000036000000360001003567
:1010B000000000350000003500010034000000345D
:1010C0000000003400010033000000330000003352
:1010D0000001003200000032000000320001003147
:1010E000000000310000003100010030000000303D
:1010F000000000300001002F0000002F0000002F32
:101100000000002F0001002E0000002E0000002E25
:101110000001002D0000002D0000002D0000002D1A
:101120000001002C0000002C0000002C0000002C0E
:101130000001002B0000002B0000002B0000002B02
:101140000001002A0000002A0000002A0000002AF6
:1011500000010029000000290000002900000029EA
:1011600000000029000100280000002800000028DD
:1011700000000028000000280001002700000027D0
:1011800000000027000000270000002700010026C3
:1011900000000026000000260000002600000026B7
:1011A00000010025000000250000002500000025AA
:1011B000000000250000002500010024000000249C
:1011C000000000240000002400000024000100238F
:1011D0000000002300000023000000230000002383
:1011E0000000002300000023000100220000002274
:1011F0000000002200000022000000220000002267
:101200000001002100000021000000210000002159
:10121000000000210000002100000021000100204A
:10122000000000200000002000000020000000203E
:101230000000002000000020000000200001001F2E
:101240000000001F0000001F0000001F0000001F22
:101250000000001F0000001F0001001E0000001E13
:101260000000001E0000001E000000043700001EE9
:10127000290000511B00005810000010090000CC8C
:10128000040000780200004101000020436F756EE9
:101290007420583A004265747400453100626564F8
:1012A000002C2073797374656D2073746F70706592
:1012B0006421204865617465725F49443A200048A2
:1012C00045495A454E204552464F4C474C4F5300D6
:1012D00048656174696E67206661696C65640020A9
:1012E0000820C39C42455253434852495454454EEA
:1012F000004D415854454D502074726967676572BE
:10130000656400200820554E5445525343485249C5
:101310005454454E004D494E54454D502074726909
:1013200067676572656400202F002042403A002004
:10133000403A007C3C3E5E2B3D3F2F5B5D3B2C2AC0
:10134000225C00434F4D4D554E49434154494F4E49
:101350000044525952554E004552524F5253004983
:101360004E464F004543484F004572726F722077DA
:10137000726974696E6720746F20454550524F4DF5
:10138000210A000F150E1216170E1303021A14016C
:10139000000E0DFF180C040C1900012121204B49EF
:1013A0004C4C2063617573656420627920746F6FA3
:1013B000206D75636820696E616374697665207459
:1013C000696D65202D2063757272656E7420636F80
:1013D0006D6D616E643A20004D343130004D313115
:1013E00032004D31303800414E474548414C54455C
:1013F0004E005072696E7465722073746F70706500
:10140000642064756520746F206572726F72732E2C
:101410002046697820746865206572726F72206159
:101420006E6420757365204D39393920746F2072D0
:101430006573746172742E202854656D70657261D5
:10144000747572652069732072657365742E2053FC
:1014500065742069742061667465722072657374A6
:10146000617274696E67290A004E6F204368656374
:101470006B73756D2077697468206C696E65206E7A
:10148000756D6265722C204C617374204C696E65B9
:101490003A20004E6F20436865636B73756D20774B
:1014A000697468206C696E65206E756D6265722C5A
:1014B000204C617374204C696E653A200063686546
:1014C000636B73756D206D69736D617463682C2037
:1014D0004C617374204C696E653A20004C696E65EE
:1014E000204E756D626572206973206E6F74204C9A
:1014F000617374204C696E65204E756D6265722B48
:10150000312C204C617374204C696E653A20004D7B
:101510003131300053442072656164206572726F0E
:10152000720A004D656469756D2065726B616E6E3F
:1015300074004269747465206E65757374617274A9
:10154000656E00445255434B455220474553544F16
:101550005050540025533A202553004142474542FC
:10156000524F4348454E005072696E746572206850
:10157000616C7465642E206B696C6C282920636132
:101580006C6C6564210A006563686F3A004572728D
:101590006F723A0020496E76616C696420657874D8
:1015A0007275646572200020746F6F206C6F6E67B7
:1015B00020657874727573696F6E207072657665D8
:1015C0006E7465640A0020636F6C642065787472C1
:1015D0007573696F6E2070726576656E7465640AE6
:1015E0000057617274656E2E2E2E004B6C69636B12
:1015F000207A756D20466F72747365747A656E001B
:101600004D6F746F72656E20616E6765736368619C
:101610006C74657400456E642066696C65206C6945
:1016200073740A00426567696E2066696C65206C98
:101630006973740A00286E6F2066696C652900431F
:10164000757272656E742066696C653A2000534449
:10165000207072696E74696E67206279746520000B
:101660004E6F74205344207072696E74696E670AFD
:10167000002E0A0044656C6574696F6E20666169AE
:101680006C65642C2046696C653A200046696C657F
:101690002064656C657465643A002569730025698A
:1016A0006D20256973002569682025696D202569ED
:1016B0007300256964202569682025696D202569E6
:1016C00073002569792025696420256968202569CA
:1016D0006D20256973005072696E742074696D65A0
:1016E0003A2000496E76616C69642050696E204D25
:1016F0006F64650A0020573A006BC3BC686C742E97
:101700002E2E006865697A742E2E2E0045202553F2
:10171000006F6B006F66660064135F1358135113FC
:10172000431344454255473A004D31313220536806
:101730007574646F776E0020573A004265747420A8
:101740006BC3BC686C742E2E2E00426574742068C6
:1017500065697A742E2E2E00416E65742041382002
:101760004F46462E004348414D4245525F54454D39
:1017700050455241545552450042414259535445F7
:101780005050494E470041524353004D4F54494F2A
:101790004E5F4D4F44455300544845524D414C5FB8
:1017A00050524F54454354494F4E004C4F4E475FA3
:1017B00046494C454E414D45004155544F524550C8
:1017C0004F52545F53445F53544154555300534454
:1017D000434152440050524F4D50545F5355505066
:1017E0004F525400454D455247454E43595F504175
:1017F0005253455200434153455F4C494748545F5B
:101800004252494748544E45535300544F47474C62
:10181000455F4C494748545300534F465457415233
:10182000455F504F574552004255494C445F504523
:101830005243454E54004C4556454C494E475F4433
:10184000415441005A5F50524F42450052554E4F4D
:101850005554004155544F4C4556454C0050524943
:101860004E545F4A4F420050524F47524553530027
:101870004155544F5245504F52545F54454D5000BE
:10188000564F4C554D455452494300454550524FD3
:101890004D0042494E4152595F46494C455F5452B2
:1018A000414E534645520053455249414C5F584FB3
:1018B0004E5F584F4646004649524D574152455F8C
:1018C0004E414D453A4D61726C696E20322E302E7C
:1018D000362E31202853657020313120323032309D
:1018E0002031323A33323A31392920534F5552435D
:1018F000455F434F44455F55524C3A68747470736A
:101900003A2F2F6769746875622E636F6D2F4D6172
:10191000726C696E4669726D776172652F4D617286
:101920006C696E2050524F544F434F4C5F56455296
:1019300053494F4E3A312E30204D414348494E4590
:101940005F545950453A416E6574204138204558DE
:101950005452554445525F434F554E543A312055E9
:101960005549443A63656465326132662D343161AC
:10197000322D343734382D396231322D63353563A9
:1019800036326633363766660A002F2F20004D3117
:10199000343520533C696E6465783E206F75742041
:1019A0006F662072616E67652028302D31290A002C
:1019B000205200416363656C65726174696F6E3AB1
:1019C0002050003F4A206F7574206F662072616E50
:1019D00067652028302E303120746F20302E332957
:1019E0000A004F4646004F4E0020580020204D610F
:1019F000783A2000200020204D696E3A2000536F75
:101A0000667420656E6473746F70733A200046527A
:101A10003A0020466C6F773A200050726F7465630D
:101A20007465642050696E0A0020643A0020693AA7
:101A30000020703A00496E76616C696420657874A4
:101A400072756465720A0020643A0020693A0020C9
:101A5000703A0064697300656E0043290A00616290
:101A60006C656420286D696E2074656D702000437C
:101A70006F6C64206578747275646573206172653B
:101A80002000566F726865722025732573257320B8
:101A9000686F6D656E00486F6D6576657273617411
:101AA0007A20616B746976004572723A20546F6FC8
:101AB000206661722100546F6F2066617220667229
:101AC0006F6D207265666572656E636520706F6903
:101AD0006E740A00454550524F4D204F4B0A004D41
:101AE000383400446F6E65207072696E74696E6779
:101AF0002066696C650A004D3737004D3331004967
:101B00006E76616C69642065787472756465720ABA
:101B1000004361703A00220A00656E717565756553
:101B2000696E672022006F6B00526573656E643AC0
:101B3000200023646566696E652044454641554C26
:101B4000545F00626564004B6420004B6920004BC9
:101B5000702000504944204175746F74756E652083
:101B600066696E69736865642120507574207468B5
:101B700065206C617374204B702C204B6920616E62
:101B800064204B6420636F6E7374616E747320669F
:101B9000726F6D2062656C6F7720696E746F204381
:101BA0006F6E66696775726174696F6E2E680A0080
:101BB000504944204175746F74756E652066616983
:101BC0006C6564212074696D656F75740A005049F5
:101BD00044204175746F74756E65206661696C652B
:101BE00064212054656D706572617475726520742E
:101BF0006F6F20686967680A00204B643A200020F4
:101C00004B693A2000204B703A20000A20436C6157
:101C10007373696320504944200A00204B643A20C2
:101C200000204B693A2000204B703A20000A204ED9
:101C30006F206F76657273686F6F740A0020547539
:101C40003A2000204B753A2000206D61783A200040
:101C5000206D696E3A200020643A2000206269619C
:101C6000733A2000504944204175746F74756E6555
:101C70002073746172740A00504944204175746F76
:101C800074756E65206661696C6564212054656DAC
:101C9000706572617475726520746F6F2068696712
:101CA000680A00504944204175746F74756E650070
:101CB000504944204175746F74756E652066616982
:101CC0006C65642120426164206578747275646576
:101CD00072206E756D6265720A004572723A2075E7
:101CE00074663820666F6E74206E6F7420696E693A
:101CF0007469616C697A65642E004572723A207568
:101D000074663820666F6E74206E6F7420696E6919
:101D10007469616C697A65642E004572723A207547
:101D200074663820666F6E74206E6F7420696E69F9
:101D30007469616C697A65642E0042657474004749
:101D40006568C3A47573650046696C616D656E74E2
:101D500064757263686D6573736572006175730095
:101D6000616E004520696E206D6DC2B30056206D16
:101D7000696E204C65657266616872740056206DEC
:101D8000696E200056206D617820450056206D61F7
:101D900078205A0056206D617820590056206D61D8
:101DA0007820580041206D617820450041206D6108
:101DB00078205A0041206D617820590041206D61E2
:101DC0007820580041204C65657266616872740025
:101DD000412045696E7A75670042657363686C657A
:101DE000756E6967756E6700000C0F00FE070226AE
:101DF00003BC01FFFE0AFE08FE05080806000040BD
:101E0000F0C88888987810050808060000C0F8888F
:101E100088888888F80505050600012030F83020FC
:101E20000508080600002070F820202020E00509A1
:101E3000090600FF2070A8A8B8888870200506064B
:101E4000060001E08CEA8C8A0A0509090600FFF801
:101E5000A88888888888A8F8050A0A0600FE205005
:101E600050505088A8A8887003030306000340A0C0
:101E700040FFFFFFFFFFFFFFFFFFFFFFFFFFFFFF31
:101E8000FFFFFFFFFFFFFF0000000605FF01070740
:101E90000602008080808080008003030306010525
:101EA000A0A0A005060606000050F85050F8500506
:101EB00009090600FF2070A8A07028A87020050757
:101EC00007060000C8C810204098980507070600BC
:101ED0000040A0A040A8906801030306020580808E
:101EE000800309090601FF20404080808040402097
:101EF0000309090601FF8040402020204040800562
:101F0000070706000020A8702070A8200505050618
:101F100000012020F820200203030601FFC04080BA
:101F2000050101060003F8020202060100C0C00517
:101F3000070706000008101020404080050707062C
:101F40000000708898A8C888700307070601004041
:101F5000C040404040E005070706000070880810B8
:101F60002040F8050707060000F8081030088870C0
:101F700005070706000010305090F81010050707FD
:101F8000060000F880F008088870050707060000C2
:101F9000304080F0888870050707060000F80810B8
:101FA00010202020050707060000708888708888A8
:101FB0007005070706000070888878081060020521
:101FC00005060100C0C000C0C00206060601FFC031
:101FD000C000C0408003050506010120408040206C
:101FE000050303060002F800F80305050601018059
:101FF0004020408005070706000070881020200060
:10200000200507070600007088B8A8B8807005078B
:1020100007060000708888F888888805070706008A
:1020200000F04848704848F005070706000070882F
:102030008080808870050707060000F048484848FF
:1020400048F0050707060000F88080F08080F8055A
:102050000707060000F88080F080808005070706EB
:102060000000708880809888700507070600008847
:102070008888F8888888030707060100E040404008
:102080004040E0050707060000381010101090606F
:102090000507070600008890A0C0A09088050707E4
:1020A000060000808080808080F805070706000019
:1020B00088D8A8888888880507070600008888C807
:1020C000A89888880507070600007088888888888F
:1020D00070050707060000F08888F08080800507FB
:1020E0000706000070888888A89068050707060022
:1020F00000F08888F0A09088050707060000708827
:102100008070088870050707060000F8202020204E
:1021100020200507070600008888888888887005C1
:1021200007070600008888888850502005070706A2
:10213000000088888888A8A850050707060000883E
:10214000885020508888050707060000888850209E
:10215000202020050707060000F80810204080F81E
:102160000309090601FFE080808080808080E0050F
:1021700007070600008040402010100803090906E8
:1021800001FFE020202020202020E005030306009E
:10219000052050880501010600FEF803030306012F
:1021A0000580402005050506000070087888780540
:1021B00007070600008080F0888888F0050505067E
:1021C0000000708080887005070706000008087806
:1021D000888888780505050600007088F0807005FD
:1021E0000707060000304840E0404040050707066A
:1021F00000FE708888887808700507070600008050
:1022000080F0888888880307070601004000C040E6
:102210004040E00409090601FE10003010101010C3
:10222000906005070706000080808890E090880392
:102230000707060100C04040404040E00505050694
:102240000000D0A8A8A8A8050505060000B0C88809
:1022500088880505050600007088888870050707CE
:102260000600FEF0888888F080800507070600FEDB
:1022700078888888780808050505060000B0C880B9
:10228000808005050506000078807008F0050707C6
:102290000600002020F82020201805050506000073
:1022A0008888889868050505060000888888502079
:1022B0000505050600008888A8A850050505060044
:1022C0000088502050880507070600FE888888503F
:1022D000204080050505060000F8102040F803099D
:1022E000090601FF2040404080404040200109098C
:1022F0000602FF808080808080808080030909063C
:1023000001FF80404040204040408005030306001C
:102310000248A890FFFFFFFFFFFFFFFFFFFFFFFF47
:10232000FFFFFFFFFFFFFFFFFFFFFFFFFFFFFFFFBD
:10233000FFFFFFFFFF0000000605FF010707060281
:1023400000800080808080800507070600FF2070E5
:10235000A8A0A87020050707060000304840E0400C
:1023600048B0050505060000A8508850A8050707D5
:102370000600008850F820F8202001070706020018
:1023800080808000808080040808060100708060E2
:1023900090906010E0030101060107A00607070600
:1023A00000007884B4A4B4847803050506010460B1
:1023B000A06000E00505050600002850A050280593
:1023C0000303060001F80808030101060103E00603
:1023D00007070600007884B4A4A4847805010106E8
:1023E0000007F804040406010560909060050707E3
:1023F0000600002020F8202000F80305050601044F
:1024000040A02040E0030505060104C0204020C094
:102410000303030601052040800507070600FE8828
:10242000888898E8808005080806000078E8E8E8D1
:1024300068282828020202060203C0C0030202061E
:1024400001FE20C003050506010440C04040E00332
:10245000050506010540A04000E005050506000051
:10246000A0502850A0050A0A06000040C04850604D
:1024700050B0507810050A0A06000040C04850606D
:1024800050A8081038050A0A060000C0204830E0AD
:1024900050B05078100507070600002000202040AB
:1024A0008870050A0A060000402000708888F888B5
:1024B0008888050A0A060000102000708888F888BD
:1024C0008888050A0A060000205000708888F8886D
:1024D0008888050A0A06000068B000708888F888B5
:1024E00088880509090600005000708888F88888E7
:1024F00088050A0A060000205020708888F888881D
:102500008805070706000078A0A0F0A0A0B805097C
:10251000090600FE708880808088701060050A0AB5
:10252000060000402000F88080F08080F8050A0A4C
:10253000060000102000F88080F08080F8050A0A6C
:10254000060000205000F88080F08080F80509091E
:102550000600005000F88080F08080F8030A0A0628
:102560000100804000E04040404040E0030A0A068D
:102570000100204000E04040404040E0030A0A06DD
:10258000010040A000E04040404040E0030909064F
:102590000100A000E04040404040E0050707060081
:1025A00000704848E8484870050A0A06000068B00C
:1025B000008888C8A8988888050A0A060000402074
:1025C0000070888888888870050A0A060000102034
:1025D0000070888888888870050A0A0600002050E4
:1025E0000070888888888870050A0A06000068B02C
:1025F00000708888888888700509090600005000E6
:102600007088888888887005050506000188502034
:1026100050880509090600FF087098A8A8A8C87086
:1026200080050A0A0600004020008888888888887B
:1026300070050A0A060000102000888888888888AB
:1026400070050A0A0600002050008888888888885B
:1026500070050909060000500088888888888870FD
:10266000050A0A060000102000888850202020203B
:1026700004070706010080E0909090E080050707BE
:10268000060000708890A09088B005080806000039
:10269000402000700878887805080806000010209F
:1026A000007008788878050808060000205000703F
:1026B0000878887805080806000068B00070087877
:1026C00088780507070600005000700878887805AC
:1026D0000808060000205020700878887805050555
:1026E000060000702870A0780507070600FE7088B5
:1026F000808870106005080806000040200070887F
:10270000F080700508080600001020007088F08036
:10271000700508080600002050007088F0807005E1
:10272000070706000050007088F080700308080654
:102730000100804000C0404040E00308080601005E
:10274000204000C0404040E003080806010040A0CF
:1027500000C0404040E0030707060100A000C04061
:102760004040E0050909060000502050087888889C
:10277000887005080806000068B000B0C88888881E
:102780000508080600004020007088888870050849
:102790000806000010200070888888700508080668
:1027A0000000205000708888887005080806000026
:1027B00068B0007088888870050707060000500020
:1027C00070888888700505050600012000F8002043
:1027D0000505050600007898A8C8F0050808060059
:1027E00000402000888888887005080806000010CE
:1027F000200088888888700508080600002050009E
:102800008888888870050707060000500088888837
:102810008870050A0A0600FE10200088888850206B
:1028200040800509090600FE8080F0888888F080D5
:10283000800509090600FE500088888850204080E5
:10284000447275636B2070617573696572742E2EA6
:102850002E0043616E6E6F74206F70656E2073750D
:10286000626469722000534420496E697420466195
:10287000696C0053442063617264206F6B0A006FBF
:1028800070656E526F6F74206661696C65640A00D2
:10289000766F6C756D652E696E6974206661696C02
:1028A00065640A004E6F20534420636172640A001D
:1028B0004D3234004D32332025730046696C65205B
:1028C00073656C65637465640A002053697A653AC0
:1028D000200046696C65206F70656E65643A200063
:1028E000454E4420535542524F5554494E450A00D7
:1028F0002220706F73002220706172656E743A221C
:1029000000535542524F5554494E452043414C4C7B
:10291000207461726765743A220053756263616C5A
:102920006C204F766572666C6F77004578636565DD
:10293000646564206D617820535542524F55544967
:102940004E452064657074683A310A0057726974A4
:10295000696E6720746F2066696C653A20002E0AE4
:10296000006F70656E206661696C65642C20466935
:102970006C653A2000667265736800646F696E6703
:10298000002066696C653A20004E6F7720000000D9
:102990002100240027002A00000022002500280032
:1029A0002B00000020002300260029000202020262
:1029B00002020202040404040404040403030303E3
:1029C00003030303010101010101010101020408E4
:1029D00010204080010204081020408001020408F9
:1029E00010204080804020100804020100000001F7
:1029F00002000000000000000403070600000000C1
:102A00000000000000000000000000000268747474
:102A100070733A2F2F6D61726C696E66772E6F72CC
:102A20006700322E302E362E310001FFFFFFFFFFF0
:102A3000FFFFFFFFFFFFFFFF0FFFFFFFFFFFFFFF96
:102A4000FFFFFFFFFFFF1E0000000000000000006E
:102A50000007FFFF38000000000000000000000336
:102A6000FFFF700000000000000000000001FFFFF9
:102A7000600000000000000000000000FFFF600098
:102A8000000000000000000000007FFFC000000008
:102A900000000000007800003FFFC00FC0FC0000F5
:102AA0000000007818001FFFC03FE1FF0000000099
:102AB00000783C000FFFC07FF3FF8000000000782B
:102AC0003C0007FFC0FFFFFFC000000000783C0093
:102AD00003FFC1F87F87E00000000078000001FFDD
:102AE000C1F03F03E00000000078000000FFC1E0FB
:102AF0001E01E01F0003E0783C03F07FC1E01E01EF
:102B0000E07FC00FF8783C07FC3FC1E01E01E1FF09
:102B1000E01FFC783C0FFE1FC1E01E01E3FFF03F09
:102B2000FE783C1FFE0FC1E01E01E3F3F83F3E7844
:102B30003C3F3F07C1E01E01E7E0FC7C1F783C3EC4
:102B40001F07C1E01E01E7C07C7C0F783C3C0F03EF
:102B5000C1E01E01E7807C780F783C3C0F03C1E0A8
:102B60001E01E7803C7800783C3C0F03C1E01E0169
:102B7000E7803C7800783C3C0F03C1E01E01E78011
:102B80003C7800783C3C0F03C1E01E01E7C03C7874
:102B900000783C3C0F03C1E01E01E3E03C78007C80
:102BA0003C3C0F03C1E01E01E3FF3FF8007FBC3C4B
:102BB0000F03C1E01E01E1FF3FF8003FBFFC0F0320
:102BC000C1E01E01E0FF3FF8001FBFFC0F03C1E0A2
:102BD0001E01E07F3FF8000FBFFC0F036000000004
:102BE000000000000000000000076000000000007E
:102BF000000000000000000670000000000000005F
:102C000000000000000E380000000000000000007E
:102C10000000001C1E00000000000000000000007A
:102C200000780FFFFFFFFFFFFFFFFFFFFFFFFFF039
:102C300001FFFFFFFFFFFFFFFFFFFFFFFF8010000F
:102C4000C90210012C014001220170011801B001DC
:102C50000E01F00104015002FA00B002F00030034E
:102C6000E600D003DC009004D2007005C800A00686
:102C7000BE000008B400B009AA00D00BA000600E8E
:102C8000960060118C000015820020197800C01D8C
:102C90006E00A0226400B0275A00902C5000003132
:102CA0004600E0343C0010383200903A2800603C86
:102CB0001E00A03D1400803E0A00203F000020209E
:102CC000506C616E6E6572427566666572427974AB
:102CD00065733A20002046726565204D656D6F7200
:102CE000793A2000436F6D70696C65643A205365D2
:102CF0007020313120323032300A00204C61737440
:102D000020557064617465643A20323032302D3061
:102D1000382D3238207C20417574686F723A202833
:102D2000426F62204B75686E2C20537465696E6D1E
:102D300065747A20576F6C6667616E672C20416EF0
:102D4000657420636F6E666967290A00322E302E23
:102D5000362E310A004D61726C696E0020536F6629
:102D600074776172652052657365740A002057613B
:102D7000746368646F672052657365740A0020424B
:102D8000726F776E206F75742052657365740A00D8
:102D90002045787465726E616C2052657365740AA3
:102DA00000506F77657255700A0073746172740A0F
:102DB000006175746F25632E6700473238585900DB
:102DC0004D31303031006572726F722077726974E4
:102DD000696E6720746F2066696C650A00446F6EC7
:102DE0006520736176696E672066696C652E0A00DE
:102DF0004D323900456E6473746F70700025532036
:102E0000256320256320256320256300205A3A008E
:102E100020593A0020583A00656E6473746F7073DD
:102E2000206869743A200000202573206D6D002011
:102E3000302C312020206D6D0020312C30202020BE
:102E40006D6D0031302C302020206D6D00416368A5
:102E500073656E206265776567656E00486F74659F
:102E60006E64207A75206B616C74004265776567CB
:102E70006520457874727564657200426577656790
:102E800065205A004265776567652059004265777D
:102E9000656765205800447275636B20766F6D20FE
:102EA0004D656469756D00220A00556E6B6E6F7713
:102EB0006E20636F6D6D616E643A202200416E6515
:102EC00074204138206265726569740044727563CC
:102ED0006B742E2E2E00204500205A002059002011
:102EE0004D393220580020453A00205A3A002059E6
:102EF0003A00583A00DB0FC93F45BCDA3F8FB302B6
:102F000040FCF0274056946140FE4B9B4084A5D87E
:102F100040E0231841346A5641E859974164DBD5B3
:102F2000416E271742B4B75542CE1A9742C8AED564
:102F300042B5885A43D40684BFA65FA7BF7443E056
:102F4000BF10B11AC01C2C58C0E8F697C0B849D6BB
:102F5000C04E4E17C124D355C1802497C1A0B5D50A
:102F6000C1121A17C244AE55C2781797C26CACD5BD
:102F7000C267885AC320746F6F206C6F6E672065BC
:102F80007874727573696F6E2070726576656E7491
:102F900065640A0020636F6C6420657874727573D1
:102FA000696F6E2070726576656E7465640A002EB6
:102FB0000A006F70656E206661696C65642C20463E
:102FC000696C653A20002008204E4943485420454A
:102FD0005252454943485400546865726D616C20F3
:102FE00052756E61776179000FD552DC11241FBED6
:102FF000CFEFD0E4DEBFCDBF11E0A0E0B1E0E2E36F
:10300000F5ED01E00BBF02C007900D92A63DB107A0
:10301000D9F722E1A6EDB1E001C01D92A436B207B6
:10302000E1F717E1C5EFD7E104C02197FE010E9447
:10303000ECE9C43FD107C9F70E940AD60C948CEA88
:103040000C940000CF92DF92EF92FF9280912002C9
:10305000882309F457C0C0901C02D0901D02E09054
:103060001E02F0901F0220E030E0A901C701B60166
:103070000E94F9E0882309F445C020E030E040E0F8
:103080005FE3C701B6010E945FE19B01AC010E94B2
:103090005FE12BED3FE049E450E40E945FE19B01DA
:1030A000AC0160E070E080E89FE30E9401E86B0102
:1030B0007C01C0920B02D0920C02E0920D02F092C1
:1030C0000E0260910B0170910C01072E000C880B11
:1030D000990B0E9400E12AE037ED43E25CE30E9495
:1030E0005FE1A70196010E945FE160935B0170932D
:1030F0005C0180935D0190935E01FF90EF90DF9003
:10310000CF900895C12CD12C80E8E82E8FE3F82EC3
:10311000D0CF8F929F92AF92BF92CF92DF92EF92D9
:10312000FF92FC01C080D180E280F38020E030E09B
:1031300040E251E4C701B6010E945FE120E030E0C7
:1031400040E251E40E945FE14B015C0120E030E08D
:10315000A901C701B6010E94F9E020E030E040EA91
:1031600050E487FF04C020E030E040EA50ECC501A5
:10317000B4010E947EE720E030E040E251E40E948A
:1031800001E80E9473E89B018BE237FF05C022270C
:103190003327261B370B8DE28093E301C90168EECC
:1031A00073E00E94B9E9CB01EAE0F0E0BF010E94C0
:1031B000B9E9805D8093E401C90164E670E00E9492
:1031C000B9E9CB01BF010E94B9E9805D8093E501B7
:1031D000C901BF010E94B9E9282FCB01BF010E949C
:1031E000B9E9805D8093E6018EE28093E701205D7E
:1031F0002093E80183EE91E0FF90EF90DF90CF9075
:10320000BF90AF909F908F9008959C0197FF26C02C
:10321000EE27FF27E81BF90B2D398FEF38070CF04D
:103220005DC08DE28093E501CF0164E670E00E940D
:10323000B9E9CB012AE030E0B9010E94B9E9805D2B
:103240008093E601CF01B9010E94B9E9CB01B90130
:103250000E94B9E9805D8093E7012AC0283E83E09F
:103260003807B4F1C90168EE73E00E94B9E9CB01F7
:10327000EAE0F0E0BF010E94B9E9805D8093E501DA
:10328000C90164E670E00E94B9E9CB01BF010E9468
:10329000B9E9805D8093E601C901BF010E94B9E9E7
:1032A000CB01BF010E94B9E9805D8093E701F9017C
:1032B000CF016AE070E00E94B9E9805D8093E80187
:1032C00085EE91E008958DE237FDC5CF80E2C3CF52
:1032D000F90180E2243631050CF0A4CF80E280931E
:1032E000E5018093E601EA30F1056CF38DE237FFEA
:1032F00080E28093E601CF016AE070E00E94B9E9C4
:10330000605D6093E701D4CF9C0180E224363105F3
:1033100058F0C90164E670E00E94A5E9CB016AE0BB
:1033200070E00E94A5E9805D8093E60180E22A308A
:10333000310558F0EAE0F0E0C901BF010E94A5E9BB
:10334000CB01BF010E94A5E9805D8093E701C9011F
:103350006AE070E00E94A5E9805D8093E80186EE56
:1033600091E0089524E6829FC001112481589F4F67
:103370006FEF70E00E94B9E9262F81E3643609F00F
:1033800080E28093E50190E22A3040F03AE0822F1B
:10339000632F0E948BE90E948BE9905D9093E60178
:1033A000822F6AE00E948BE9905D9093E70185E2AD
:1033B0008093E80185EE91E00895FC01A081B18140
:1033C0001C92A281B3818C918F5F8C930280F381D8
:1033D000E02D90818CE0989F800D1124E5E2FFE0C4
:1033E00013AE84AF089560910B0170910C01072E0C
:1033F000000C880B990B0E9400E12AE037ED43E2B4
:103400005CE30E945FE120910B0230910C0240913D
:103410000D0250910E020E945FE160935B01709378
:103420005C0180935D0190935E0108958091EA06AE
:10343000811104C08091C806809341070895CF93FD
:10344000DF93EC01CB01BA010E9400E120E030E003
:10345000A9010E947EE70E9473E879836883DF9167
:10346000CF9108958091EA06811104C08091C80629
:10347000809341070895809176108823C1F0815090
:1034800080937610E7EDFEE0882351F08150990B90
:103490002BE1289FF001299FF00D1124E859F04FEE
:1034A0008BE1ACEBBEE001900D928A95E1F72091A3
:1034B0007610211105C08091801080628093801069
:1034C00081E090E0A0E0B0E0211103C080E090E056
:1034D000DC018093D8069093D906A093DA06B093C6
:1034E000DB061092D00681E08093E80683E08093AB
:1034F0004A010895CF93DF93EC01CB01BA010E94FA
:1035000000E120E030E0A9010E947EE70E947AE815
:1035100079836883DF91CF9108950E9400E120E0D4
:1035200030E0A9010E947EE70E947AE8CB010C946A
:103530008419CF93DF93EC01CB01BA010E9400E123
:1035400029EC38EC48EC5EE30E9401E820E030E032
:1035500040E05FE30E947EE70E947AE86883DF91A3
:10356000CF9108950E9400E129EC38EC48EC5EE32D
:103570000E9401E820E030E040E05FE30E947EE747
:103580000E947AE8862F0C94B219E091EA0686E050
:10359000E802F0011124E05FFD4F8091C80690E041
:1035A000958384830895CF93DF93EC01CB01BA0117
:1035B0000E9400E120E030E040E251E40E9401E896
:1035C00020E030E0A9010E947EE7688379838A8346
:1035D0009B83DF91CF910895CF93DF93EC01CB01D3
:1035E000BA010E9400E12AE037ED43E25DE30E9468
:1035F00001E820E030E0A9010E947EE70E947AE81D
:10360000688379838A839B83DF91CF910895CF93D9
:10361000DF93EC01CB01BA010E9400E120E030E031
:10362000A9010E947EE7688379838A839B83DF9167
:10363000CF910895CF93DF93EC01CB01BA010E94A3
:1036400000E120E030E0A9010E947EE768837983F1
:103650008A839B83DF91CF910895CF93DF93EC0111
:10366000CB01BA010E9400E12AE037ED43E25DE3BD
:103670000E9401E820E030E0A9010E947EE7688313
:1036800079838A839B83DF91CF910895CF93DF93D2
:10369000EC01CB01BA010E9400E120E030E04AE7F2
:1036A00054E40E9401E820E030E0A9010E947EE796
:1036B000688379838A839B83DF91CF910895CF9329
:1036C000DF93C0912D02D0912E02209729F16091B5
:1036D000290270912A0280912B0290912C020E9463
:1036E00073E86E5F7F4F24976C177D07ACF470937F
:1036F0004503609344030E940EC0605E70448D4F8A
:103700009F4F6093460370934703809348039093C1
:103710004903DF91CF910895109246031092470319
:103720001092480310924903F4CF0F931F930E9405
:103730000EC00091770210917802209179023091A9
:103740007A02601B710B820B930B97FD0CC089B141
:1037500083FB882780F991E089274A9B8260309B10
:1037600084608093760280917602817090917602D7
:1037700091FD826090917502981749F0813009F1AE
:1037800048F0823079F0833091F0809375021F9178
:103790000F910895913079F09230B9F790917402B9
:1037A00091500CC0992339F09330C1F3EECF913092
:1037B000A9F3923051F7909174029F5F9093740235
:1037C000E4CF992359F3933001F7F5CFCF92DF92ED
:1037D000EF92FF92CF93C82F0E940EC06B017C0125
:1037E00024EA30E74DE75FE360910501709106013F
:1037F00080910701909108010E94F9E087FD18C0AF
:103800008AEF90E0A0E0B0E08C0D9D1DAE1DBF1DC5
:103810008093680290936902A0936A02B0936B024E
:10382000C0930901CF91FF90EF90DF90CF90089562
:1038300080E090E0DC01E8CF0C941AC00C941AC030
:10384000CF93C82FCB010E94638187E896E00E9446
:10385000638188E796E0CC2311F08DE796E00E9423
:1038600063818AE0CF910C945C810F931F93CF9377
:10387000811113C0C42F8B010E94988189E798E0C1
:103880000E946381C8010E946381CC2331F08AE0E9
:10389000CF911F910F910C945C81CF911F910F914B
:1038A00008958093C80620E040E070E060E086ED77
:1038B0009CE10C94BE7120E040E070E060E080EF9D
:1038C00099E30E94BE7181E08093E1011092D701DB
:1038D0001092D601089521E02093E1016093050143
:1038E00070930601809307019093080120E040E067
:1038F00070E060E08091C6069091C7060C94BE719E
:103900006DEC7CEC8CEC9CE30C946B1C6DEC7CEC17
:103910008CEC9DE30C946B1C60E070E080E89FE30E
:103920000C946B1C60E070E080E291E40C946B1CE2
:10393000CF92DF92EF92FF920F931F9389E1C82EEF
:1039400083E0D82EF12CE12C03EA13E025E23DE1DF
:103950004EEF5FE46BE173E083E293E00E94CB7390
:103960001F910F91FF90EF90DF90CF900895CF922D
:10397000DF92EF92FF920F931F9388E0C82E82E0B0
:10398000D82EF12CE12C05E212E030E020E04EEAE6
:103990005AE66AE072E084E192E00E94CB731F91E4
:1039A0000F91FF90EF90DF90CF900895AF92BF926C
:1039B000CF92DF92EF92FF920F931F93CF93DF93FB
:1039C000CDB7DEB7ADB6BEB685E696E00E94A97368
:1039D00090E001962DB73EB7281B390B0FB6F8942F
:1039E0003EBF0FBE2DBF8DB79EB701967C0165E629
:1039F00076E00E943FE08091C80600E316E0813047
:103A000031F00BE116E0823011F003E416E084E5BA
:103A1000C82E86E0D82E2FEE31E74EEA5AE666E54C
:103A200076E08DE596E00E94CB730FB6F894BEBEAB
:103A30000FBEADBEDF91CF911F910F91FF90EF9020
:103A4000DF90CF90BF90AF9008950C940A72AF9220
:103A5000BF92CF92DF92EF92FF920F931F93CF937B
:103A6000DF93CDB7DEB7ADB6BEB68091FD0660EF91
:103A700076E0882311F06DEF76E0FB0101900020E5
:103A8000E9F7CF01861B970B01962DB73EB7281B90
:103A9000390B0FB6F8943EBF0FBE2DBF8DB79EB742
:103AA00001967C0180E2EDB7FEB78183C7010196E4
:103AB0000E945DEA8EECC82E83E0D82E00ED13E064
:103AC00025E23DE145E250E26DED73E087EE93E0E3
:103AD0000E94CB730FB6F894BEBE0FBEADBEDF9191
:103AE000CF911F910F91FF90EF90DF90CF90BF90FB
:103AF000AF900895CF93DF9300D000D0CDB7DEB75D
:103B00008091C1061092C106882359F01092E101FC
:103B10000E940A720F900F900F900F90DF91CF913B
:103B200008956091D8067091D9068091DA06909137
:103B3000DB06611571058105910561F10E9400E1C7
:103B40002091050130910601409107015091080133
:103B50000E945FE120915701309158014091590135
:103B600050915A010E947EE760935701709358016B
:103B70008093590190935A0183E00E94E61B81E0F3
:103B800080934A011092D8061092D9061092DA0654
:103B90001092DB0680914A01882309F4BBCF20E014
:103BA00030E0A9016091570170915801809159014D
:103BB00090915A010E947EE72091C2063091C3067F
:103BC0004091C4065091C5060E947DE769837A83BF
:103BD0008B839C83CE0101960E948918BC018BE6E1
:103BE0009EE20E94B27696CF3F924F925F926F9282
:103BF0007F928F929F92AF92BF92CF92DF92EF927D
:103C0000FF920F931F93CF93DF93CDB7DEB72A9721
:103C10000FB6F894DEBF0FBECDBF9A878987362EC8
:103C20008091C1061092C1068823E1F01092E10153
:103C30000E940A722A960FB6F894DEBF0FBECDBF5F
:103C4000DF91CF911F910F91FF90EF90DF90CF9078
:103C5000BF90AF909F908F907F906F905F904F90AC
:103C60003F9008958091D8069091D906A091DA06E8
:103C7000B091DB068D839E83AF83B887892B8A2B17
:103C80008B2B09F454C094E0699F80011124F80142
:103C9000E55BFE4F4080518062807380809100011F
:103CA00081118BC020E030E04AE754E4C301B20147
:103CB0000E947DE74B015C0120E030E04AE754E4DC
:103CC000C301B2010E947EE76B017C016D817E81A0
:103CD0008F8198850E9400E12091050130910601B5
:103CE00040910701509108010E945FE1A3019201F8
:103CF0000E947EE72B013C018D819E81AF81B885BA
:103D0000B7FF9CC0A5019401C301B2010E94F9E074
:103D100087FD8CC0F801E55BFE4F408251826282D4
:103D20007382832D0E94E61B81E080934A011092EA
:103D3000D8061092D9061092DA061092DB0680910E
:103D40004A01882309F476CF94E0399E800111243A
:103D5000F801E55BFE4F20E030E0A9016081718150
:103D6000828193810E947EE7F801E75EF84F20810F
:103D70003181428153810E947EE76B017C01C982BF
:103D8000DA82EB82FC822DEC3CEC4CEC5DE3609142
:103D900005017091060180910701909108010E9430
:103DA00001E987FD5CC0CE0101960E948918BC0123
:103DB00089859A850E94B2763DCFA1E06A17A1F06D
:103DC000B2E06B1711F180900D0190900E01A09060
:103DD0000F01B0901001C0901901D0901A01E0902D
:103DE0001B01F0901C0172CF809011019090120184
:103DF000A0901301B0901401C0901D01D0901E013D
:103E0000E0901F01F090200161CF8090150190900B
:103E10001601A0901701B0901801C0902101D09018
:103E20002201E0902301F090240150CFF801E55BDE
:103E3000FE4F80829182A282B38273CFA701960146
:103E4000C301B2010E9401E918160CF063CFF8011A
:103E5000E55BFE4FC082D182E282F38262CF20E036
:103E600030E040E251E4C701B6010E945FE120E08A
:103E700030E04AE754E40E945FE14B015C0120E03E
:103E800030E0A901C701B6010E94F9E020E030E06E
:103E900040EA50E487FF04C020E030E040EA50EC04
:103EA000C501B4010E947EE720E030E040E251E429
:103EB0000E9401E80E9473E86B017C01F7FC62C07C
:103EC00020EA36E841E050E00E94CDE9CA01B9019C
:103ED0002AE030E040E050E00E94CDE9605D609370
:103EE000E201C701B60120E137E240E050E00E9464
:103EF000CDE98AE0882E912CA12CB12CCA01B90100
:103F0000A50194010E94CDE9605D6093E301C701C2
:103F1000B60128EE33E040E050E00E94CDE9CA014E
:103F2000B901A50194010E94CDE9605D6093E401AF
:103F30008EE28093E501C701B60124E630E040E05F
:103F400050E00E94CDE9CA01B901A50194010E9487
:103F5000CDE9605D6093E601C701B601A50194015A
:103F60000E94CDE9162FCA01B901A50194010E9452
:103F7000CDE9605D6093E701105D1093E80182EE8A
:103F800091E015CFF094E094D094C094C11CD11C62
:103F9000E11CF11C6DE2A3CF62E08BE79EE20C9482
:103FA000F41D61E084E89EE20C94F41D60E08DE86D
:103FB0009EE20C94F41D6FE17AE183ED95E40C949C
:103FC00031776AE77AE18DE89AE10C94317769E913
:103FD0007AE182EB9AE10C94317763ED7AE18CE33C
:103FE00090E20C9431776CEE7AE18BE490E20C94E1
:103FF00031776AE17BE18EEC9AE60C9431776DE2E1
:104000007BE18FEB9AE60C94317767E07BE18AE500
:1040100090E20C94317766E47BE18DE290E20C94BF
:1040200031776AE77DE183E00C9464D26CEC7FE148
:1040300082E00C9464D261ED7FE181E00C9464D263
:1040400066ED7FE180E00C9464D280EF96E00E9400
:10405000FEC50E94EF710C9405BA0E9400E120E0B9
:1040600030E04AE754E40E9401E820E030E0A90192
:104070000E947EE70C94B7700E9400E120E030E0DF
:1040800040E251E40E9401E820E030E0A9010E94F2
:104090007EE70C94BC6F0E9400E12AE037ED43E21A
:1040A0005DE30E9401E820E030E0A9010E947EE784
:1040B0000C94A36F0E9400E120E030E0A9010E946F
:1040C0007EE70C946371BF92CF92DF92EF92FF92E2
:1040D0000F931F93CF93DF930E94B7BBC091D0067D
:1040E00085E0C82ECC0ED4E0DC1B13E01C1B82E064
:1040F000F82EFC1A81E0E82EEC1ABC2EB194C11106
:1041000030C08091D2068823B1F080914A01882383
:1041100059F081E09091D206911180E024E045EFC2
:1041200051E06B2D0E94D1BACF5FCC11E8CF85E072
:104130008093D1060CC08091C1061092C1068823DD
:1041400021F30E940A728091E8068823F1F2DF9140
:10415000CF911F910F91FF90EF90DF90CF90BF9084
:104160000895C130B9F58091D2068130F1F0809187
:104170004A018823C9F2DD24D3948091D20681308C
:1041800009F0D12C60911A0C70911B0C80911C0CC1
:1041900090911D0C0E94BC6F00E09C014AEE51E022
:1041A0006E2D8D2D0E94CD77BFCF8091C1061092CC
:1041B000C1068823E1F20E940DBC44EE5BE66AE191
:1041C0007CE08AEE91E00E940ABD8091E806882397
:1041D00071F2BDCFC23009F07FC08091D20682302B
:1041E000E1F080914A01882309F49ECFDD24D39425
:1041F0008091D206823009F0D12C60911E0C709112
:104200001F0C8091200C9091210C0E94BC6F00E04B
:104210009C014FED51E06F2DC4CF8091C1061092EB
:10422000C1068823F1F20E940DBC42EE5BE66EE10E
:104230007CE08FED91E00E940ABD8091E806882322
:1042400081F285CF8091D2068330E1F080914A01DE
:10425000882309F469CFDD24D3948091D20683307A
:1042600009F0D12C6091220C7091230C8091240CC8
:104270009091250C0E94BC6F00E09C0144ED51E040
:10428000612F8FCF8091C1061092C1068823F1F271
:104290000E940DBC40EE5BE662E27CE084ED91E0C2
:1042A0000E940ABD8091E806882381F250CF809158
:1042B000C1061092C1068823C9F00E940DBC4EEDC4
:1042C0005BE666E27CE089EC91E00E940ABD8091A9
:1042D000E806882359F03BCFC33009F4B3CFC4308C
:1042E00009F022CF8091D206843009F380914A01EF
:1042F000882309F419CFDD24D3948091D206843029
:1043000009F0D12C6091260C7091270C8091280C1B
:104310009091290C0E94BC6F00E09C0149EC51E097
:104320006D2F3FCFCF93DF93EC010E9438CA1B82E1
:10433000DF91CF910895CF93DF93EC01462F417029
:104340006C857D858E859F850E9414C7882351F0DA
:10435000888920E2829FC00111248058934FDF9109
:10436000CF91089590E080E0FACFCF93DF93EB01F7
:10437000FC012381211104C080E0DF91CF910895D9
:104380002250223028F48FE28883198281E0F5CF11
:1043900060E00E949B21009779F3DC0160E080E0FF
:1043A0009EE22D91203299F0883031F49E01260F43
:1043B000311DF90190836F5F9E01260F311DAD0104
:1043C00041505109FA014081F90140836F5F8F5FCD
:1043D0008B3039F7FE01E60FF11D1082D7CF3F92E7
:1043E0004F925F926F927F928F929F92AF92BF9205
:1043F000CF92DF92EF92FF920F931F93CF93DF93B1
:10440000CDB7DEB72C970FB6F894DEBF0FBECDBF89
:104410005C01DC0159968D909C90F4018185928518
:10442000A385B4859C01AD012F5F3F4F4F4F5F4F78
:1044300029873A874B875C87D50114964D905D900C
:104440006D907C901797411451046104710409F434
:1044500059C0BFEF4B1A5B0A6B0A7B0A312C730100
:1044600062011D821E821F821886F4018185928559
:10447000A385B4852D813E814F8158852817390742
:104480004A075B0708F056C089859A85AB85BC85CD
:104490008C159D05AE05BF0550F482E0C82ED12CC9
:1044A000E12CF12C92E0492E512C612C712C9E01B3
:1044B0002F5F3F4FB701A601C4010E944BC988235B
:1044C000C9F189819A81AB81BC81892B8A2B8B2B85
:1044D00001F1260137019FEF491A590A690A790A41
:1044E0002D813E814F8158852F5F3F4F4F4F5F4F4A
:1044F0002D833E834F8358873FEFC31AD30AE30AC5
:10450000F30AB3CF408051806280738033243394A8
:10451000A6CFC414D504E604F70411F70FEF1FEF7C
:104520002FEF3FE0B701A601C4010E94B9C8782E61
:1045300081111AC0712C872D2C960FB6F894DEBF0E
:104540000FBECDBFDF91CF911F910F91FF90EF90E4
:10455000DF90CF90BF90AF909F908F907F906F90A3
:104560005F904F903F900895F50144815581668199
:104570007781411551056105710539F09701860173
:10458000C4010E94B9C88823A9F2D5011496CD921E
:10459000DD92ED92FC921797332051F0D701C601BE
:1045A0000196A11DB11DF40180839183A283B38381
:1045B000F50185899689A789B08D892B8A2B8B2B4C
:1045C00009F0B9CFC58AD68AE78AF08E81818068E2
:1045D0008183B1CF40E050E0BA010C9484CAFC0161
:1045E000238121110C94922108952F923F924F9292
:1045F0005F926F927F928F929F92AF92BF92CF9273
:10460000DF92EF92FF920F931F93CF93DF93CDB77B
:10461000DEB7C354D1090FB6F894DEBF0FBECDBFCD
:104620004C015B016A01222E19821C821C8E1F8E96
:104630006115710521F510E0CE014C960E94EF2224
:10464000CE0101960E94EF22812FCD5BDF4F0FB686
:10465000F894DEBF0FBECDBFDF91CF911F910F91B8
:10466000FF90EF90DF90CF90BF90AF909F908F9092
:104670007F906F905F904F903F902F900895FC0136
:1046800083818111D8CFFA0180818F32A9F18B010A
:10469000CE0101967C013C0180E2382E2E019CE186
:1046A000490E511C2396EFAE23972496FFAE249714
:1046B00022963FAE229721963FAE21973FAE3EAE67
:1046C0003DAE3CAE3BAE3AAE39AE38AE3FAA9601F7
:1046D00090E047E0D9018D91882309F448C08F32DA
:1046E00009F445C0282F8E3209F54A3009F4A3CFCA
:1046F00098E04AE09D01EECFFB01838182508B015F
:10470000823060F0618D728DCE014C960E94F6CFA2
:104710008E01045E1F4F882309F48DCFC6016C0102
:104720000196F60120812F32D1F3B2CFE3E3F3E11A
:104730003491332321F031968313FACF7CCF49177C
:1047400008F479CF813208F476CF8F3709F473CF2C
:104750003FE9380F3A3110F420EE280FE7E3F0E09C
:10476000EC0FFD1FE90FF11D20839F5FC3CF8FA9C1
:10477000803209F460CF6901F90180812F5F3F4FDA
:104780008F32C9F3882301F121E0AE01495C5F4F0C
:10479000B801C7010E949BD0882309F44CCF0A15A9
:1047A0001B0519F0C8010E949221942D852D6E14CD
:1047B0007F0431F023969FAD239724968FAD2497E5
:1047C0008701E92EF82E74CF222DAE01495C5F4F90
:1047D000B801C4010E949BD0182F2ECF61E0FC01CC
:1047E00080810E946CBE8FEF0C94158DDF92EF924A
:1047F000FF920F931F93CF93DF938C01C62FD22F7D
:10480000F32EE42ED52EFC0182810E94218D60E0E2
:10481000F80180810E946CBE0E9409C18C2F8064C7
:104820000E94158D8D2D0E94158D8E2D0E94158D47
:104830008F2D0E94158D8D2F0E94158D87E8C11137
:1048400001C085E90E94158DCC3011F40E941A8DAB
:10485000C0E00E941A8DF801838387FF04C0CF3F18
:1048600011F0CF5FF6CFDF91CF911F910F91FF90A5
:10487000EF90DF9008950F931F93CF93DF93EC0198
:1048800089018C81833039F089E0440F551F661F00
:10489000771F8A95D1F79A01AB0168E1CE010E949A
:1048A000F62381114AC08EEF8EBDF801C8019E5FCC
:1048B0000DB407FEFDCF20812EBD0DB407FEFDCF48
:1048C00021812EBD3296E817F90791F70DB407FE46
:1048D000FDCF8FEF0E94158D8FEF0E94158D0E94E6
:1048E0001A8D8B838F71853089F40E9409C1182F2E
:1048F000882301F120E030E0A9016DE0CE010E94A3
:10490000F623882351F086E1898305C083E18983FA
:10491000CE010E94EE2310E004C00E941A8D811186
:10492000F2CFCE010E94EE23812FDF91CF911F9114
:104930000F91089587E18983F4CF86E0E5CFCF9288
:10494000DF92EF92FF920F931F93CF93DF93EC01CF
:1049500089018C81833039F089E0440F551F661F2F
:10496000771F8A95D1F79A01AB0161E1CE010E94D0
:10497000F623882381F084E08983CE010E94EE2310
:1049800010E0812FDF91CF911F910F91FF90EF9059
:10499000DF90CF9008950E940EC06B017C012CE245
:1049A000C20E21E0D21EE11CF11C0E941A8D8B83E5
:1049B0008F3F61F40E940EC06C197D098E099F091A
:1049C00097FDF3CF81E1898310E01BC08E3FE9F4AE
:1049D0008FEF8EBDF801D801A150BE4F0DB407FE78
:1049E000FDCF9EB591938EBDAE17BF07B9F70DB43D
:1049F00007FEFDCF8EB58C930E941A8D0E941A8DF2
:104A000011E0CE010E94EE23BCCF8FE0DCCF0F93EC
:104A10000FB70F9300916E000B7F00936E00789498
:104A20000F930BB70F930CB70F921F922F933F93D7
:104A30004F935F936F937F938F939F93AF93BF93A6
:104A4000EF93FF9311240E946926FF91EF91BF918C
:104A5000AF919F918F917F916F915F914F913F9116
:104A60002F911F900F900CBF0F910BBF0F910460FF
:104A7000F89400936E000F910FBF0F9118958091DD
:104A80004701909148010F971816190614F490E009
:104A900080E09093930E8093920E0E941AC0109221
:104AA000940E5D9810922E0210922D020E945F1BB0
:104AB00010922F025C980895109241070E943F25A2
:104AC0000C94EF718F929F92AF92BF92CF92DF9230
:104AD000EF92FF920F931F93CF93DF93B0E2A0E08A
:104AE0006A2F70E0AB014B0F511D55954795411151
:104AF00019C0E0E4FCE265917491072E000C880B6C
:104B0000990B0E9400E1DF91CF911F910F91FF90CF
:104B1000EF90DF90CF90BF90AF909F908F900895CF
:104B2000B42FE0CFA41711F0B41303C0ECEBFCE2F8
:104B3000E2CF9A0121503109220F331F220F331F78
:104B4000F901E25CF34DE590F490F901EE5BF34D71
:104B5000C591D4918E159F051CF3A42FC817D907B2
:104B60000CF4BECFF901E05CF34D05911491F9010D
:104B7000EC5BF34DC590D490BC016E197F09072EF4
:104B8000000C880B990B0E9400E14B015C01B601FF
:104B9000601B710B072E000C880B990B0E9400E123
:104BA0009B01AC01C501B4010E945FE14B015C01B6
:104BB000BE016E197F09072E000C880B990B0E940D
:104BC00000E19B01AC01C501B4010E9401E86B0149
:104BD0007C01B801110F880B990B0E9400E19B0129
:104BE000AC01C701B6010E947EE78DCFCF93DF9362
:104BF000CAE8DEE08A819B810E9485A76C837D8361
:104C00008E839F83C5E2D2E08A819B810E946225C8
:104C10006C837D838E839F83A89510922202DF91FF
:104C2000CF910895EF92FF920F931F93CF93DF934D
:104C3000C82F7B018A018091C0068130B1F40E94A7
:104C40009481C7010E94638181EA92E10E9463819D
:104C5000C7FD29C06C2F0C2E000C770B880B990B0D
:104C60000E94FD828AE00E945C810E943F25809123
:104C70001003811127C081E08093100380E88093A6
:104C8000C006D5E1D150419A99F069E170E080E029
:104C900090E00E94DBBF419860E570E080E090E02A
:104CA0000E94DBBFEFCF8DE992E10E946381DACFF2
:104CB00065E972E1CF3F11F06AE972E140E0C801B5
:104CC0000E94C081DF91CF911F910F91FF90EF90D3
:104CD00008950F931F93CF93DF9380912C018F370B
:104CE00008F47EC08F579091940E90934D039923B2
:104CF00009F474C05D9A90912F0290934C0399230C
:104D000009F478C05C9A8F5F80932C0180914B03EB
:104D100091E0892780934B0381110E94951B80911C
:104D20002B01C1E0C80F85300CF0C0E0823009F4DF
:104D300014C10CF061C0882309F476C0813009F4F5
:104D400001C1C0932B01209123023091240221152F
:104D50003105A1F1F89443B1447015981216130669
:104D60000CF429C12A9A60918400709185002B9AD5
:104D70008091840090918500861B970BB0E0A0E0A5
:104D800053E0880F991FAA1FBB1F5A95D1F7809730
:104D9000A105B10568F32B98442309F40EC12A9AA2
:104DA00078948091230290912402121613060CF03D
:104DB00006C1019790932402809323028091030CF3
:104DC0009091040C009729F001979093040C809324
:104DD000030CDF91CF911F910F9108955D988BCFB8
:104DE00090914D03891708F05D9890914C038917B5
:104DF00008F489CF5C9887CF843009F4C5C00CF4DF
:104E0000BFC0853009F09DCF90914A03911102C037
:104E100080934A0380914A03815080934A038823F8
:104E200009F48FCFC5E08DCF80912A018F5F80314B
:104E30001CF480932A0185CF10922A0180912202CE
:104E4000811113C080918A0E90918B0E90938D0EDC
:104E500080938C0E809125029091260290932802D7
:104E60008093270281E08093220210928B0E109291
:104E70008A0E109226021092250200918C0E10913B
:104E80008D0E8091920E9091930ED1E01816190616
:104E90002CF08091940E811101C0D0E080914301EB
:104EA00090914401081719073CF44FED52E161EF6E
:104EB00072E180E00E941226DD2371F080914101B1
:104EC00090914201801791073CF443E053E165E182
:104ED00073E180E00E94122680912D0290912E02B3
:104EE000D1E0181619062CF080912F02811101C013
:104EF000D0E02091270230912802809128059091DE
:104F00002905281739073CF44FED52E161EF72E1B2
:104F10008FEF0E941226DD2309F413CF2091270280
:104F20003091280280913F019091400182179307B0
:104F30000CF007CF43E053E165E173E18FEF0E948E
:104F40001226FFCE10927B0087E480937C00809134
:104F50007A00806480937A00F4CE80917A0086FD96
:104F600026C0209178003091790080918A0E90912E
:104F70008B0E820F931F90938B0E80938A0EE1CE3F
:104F800010927B0086E4E1CF80917A0086FD11C00B
:104F9000209178003091790080912502909126022D
:104FA000820F931F9093260280932502CACEC2E0FF
:104FB000C8CEC4E0C6CE2A98D6CE2A98F1CE0196A5
:104FC000F9CE2F923F924F925F926F927F928F9283
:104FD0009F92AF92BF92CF92DF92EF92FF920F9388
:104FE0001F93CF93DF93CDB7DEB763970FB6F894D7
:104FF000DEBF0FBECDBF80912202811119C0639622
:105000000FB6F894DEBF0FBECDBFDF91CF911F91D9
:105010000F91FF90EF90DF90CF90BF90AF909F9057
:105020008F907F906F905F904F903F902F9008955A
:105030000E94F6250E940EC02B013C0160914701A1
:1050400070914801072E000C880B990B0E9400E11B
:105050009B01AC0160918E0E70918F0E8091900E2D
:105060009091910E0E9401E918160CF414C36091FE
:10507000920E7091930E072E000C880B990B0E94D4
:1050800000E169837A838B839C830AE010E020E04F
:10509000AE014F5F5F4F6EE87EE08FE393E00E94CA
:1050A00050C0C0908E0ED0908F0EE090900EF09079
:1050B000910E6091450170914601072E000C880BFE
:1050C000990B0E9400E19B01AC01C701B6010E944F
:1050D00001E918160CF019C160914701709148015F
:1050E000072E000C880B990B0E9400E19B01AC017C
:1050F000C701B6010E94F9E087FF07C16091920ED7
:105100007091930E6115710509F429C3072E000CE7
:10511000880B990B0E9400E1A70196010E947DE790
:105120004B015C0120E030E040E751EC0E94F9E0E7
:1051300087FD15C320E030E040E751E4C501B4012C
:105140000E9401E918160CF423C3809139038111E0
:105150002CC320913103309132034091330350919D
:1051600034032D833E834F8358878091350390917C
:105170003603A0913703B091380389879A87AB87AC
:10518000BC87A70196016091250370912603809149
:105190002703909128030E947DE720919D0E309176
:1051A0009E0E40919F0E5091A00E0E945FE12D81B6
:1051B0003E814F8158850E947DE720ED3CEC4CE418
:1051C0005DE30E945FE12D813E814F8158850E9401
:1051D0007EE76D837E838F8398876093310370931E
:1051E000320380933303909334032091990E3091CE
:1051F0009A0E40919B0E50919C0E2D873E874F87B3
:10520000588B29853A854B855C85C501B4010E9480
:105210007EE7162F072F1C0120E030E0A9010E9435
:10522000F9E087FDD2C22D853E854F85588960E023
:1052300070E08FE793E40E9401E86987798B8A8B9D
:105240009B8B212F302FA1010E94F9E087FF04C022
:10525000198509892A883B88812F902FD101809355
:10526000350390933603A0933703B093380320910E
:10527000950E3091960E4091970E5091980EC50163
:10528000B4010E945FE14B015C018092290390927E
:105290002A03A0922B03B0922C03212F302FA101BF
:1052A0006D857E858F8598890E945FE19B01AC01A9
:1052B00020932D0330932E0340932F0350933003FC
:1052C000C501B4010E947EE72D813E814F81588542
:1052D0000E947EE720E030E0A9010E947EE74B01BA
:1052E0005C0120E030E0A9010E94F9E087FD3AC2AC
:1052F00020E030E04FE753E4C501B4010E9401E92A
:1053000018160CF039C26FE72EC260E06093940E5D
:105310008091860E9091870EA091880EB091890E93
:105320000097A105B10509F1A3019201281B390BD2
:105330004A0B5B0BDA01C901B7FD17C06091840EFF
:105340007091850E90E080E00E94FEE09B01AC0130
:10535000C701B6010E94F9E087FFD3C14FEB52E1CC
:1053600060ED72E180E00E94122620E030E042E031
:1053700053E46091290270912A0280912B0290914E
:105380002C020E9401E918160CF47DC1809146039D
:1053900090914703A0914803B09149030097A1055C
:1053A000B10549F1A3019201281B390B4A0B5B0B94
:1053B000DA01C901B7FD1FC0C0902902D0902A02AE
:1053C000E0902B02F0902C02609144037091450311
:1053D00090E080E00E94FEE09B01AC01C701B601B5
:1053E0000E94F9E087FF5FC14FEB52E160ED72E18F
:1053F0008FEF0E94122600912D0210912E02B8010B
:10540000110F880B990B0E9400E169837A838B83CB
:105410009C8305E010E02FEFAE014F5F5F4F69E224
:1054200072E08AE393E00E9450C0409029025090BD
:105430002A0260902B0270902C0220E030E040EABB
:1054400050E4C301B2010E9401E987FD18C120E0C8
:1054500030E042E053E4C301B2010E94F9E01816C3
:105460000CF40DC160912D0270912E026115710531
:1054700009F402C1072E000C880B990B0E9400E171
:10548000A30192010E947DE74B015C0120E030E026
:1054900040E751EC0E94F9E087FDEEC020E030E0EB
:1054A00040E751E4C501B4010E9401E918160CF46B
:1054B0006AC18091340290913502A0913602B09178
:1054C00037028D839E83AF83B88780912901811134
:1054D00064C1209121033091220340912303509114
:1054E0002403C0901D03D0901E03E0901F03F09092
:1054F0002003C501B4010E947EE7162F072F382E26
:10550000292E20E030E0A9010E94F9E087FD58C172
:105510002D813E814F81588560E070E08FE793E4F4
:105520000E9401E86D877987898B9A8B212F302F14
:10553000432D522D0E94F9E087FF04C01D85098587
:1055400039882A88812F902FA32DB22D8093210393
:1055500090932203A0932303B0932403209130025D
:10556000309131024091320250913302C501B401B1
:105570000E945FE14B015C0180921503909216033B
:10558000A0921703B0921803212F302F432D522DD4
:105590006D817E818F8198850E945FE16D837E831E
:1055A0008F8398876093190370931A0380931B036A
:1055B00090931C03A3019201609111037091120357
:1055C00080911303909114030E947DE7209138028B
:1055D0003091390240913A0250913B020E945FE1C2
:1055E000A70196010E947DE720ED3CEC4CE45DE3D1
:1055F0000E945FE1A70196010E947EE76B017C019A
:10560000C0921D03D0921E03E0921F03F09220036C
:10561000409211035092120360921303709214038C
:105620002D813E814F815885C501B4010E947EE7DE
:10563000A70196010E947EE720E030E0A9010E94C8
:105640007EE76B017C0120E030E0A9010E94F9E0D7
:1056500087FD15C020E030E04FE753E4C701B601F5
:105660000E9401E918160CF491C0C701B6010E940E
:1056700073E87595679504C081E08093290160E027
:1056800060932F02BCCC46EC5FE268ED7FE28FEFC7
:105690000E9412267BCE46EC5FE268ED7FE280E05E
:1056A0000E941226E4CC00912D0210912E020115C9
:1056B0001105F1F0C701B6010E9473E86E5F7F4FDC
:1056C000C8010497681779079CF4709345036093A9
:1056D00044030E940EC0605E70448D4F9F4F6093E4
:1056E000460370934703809348039093490383CE06
:1056F00010924603109247031092480310924903F8
:105700007ECE0091920E1091930E01151105F1F0CD
:10571000C701B6010E9473E86E5F7F4F0450110904
:10572000601771079CF47093850E6093840E0E943D
:105730000EC0605E714B8F4F9F4F6093860E7093CB
:10574000870E8093880E9093890E0FCE1092860E4E
:105750001092870E1092880E1092890E06CE81E06C
:105760008093390360E0C0922503D0922603E09233
:105770002703F0922803CACDC501B4010E9473E843
:1057800075956795F0CF81E0809329016FE778CF19
:1057900081E0809339036FE7E6CF10922901C12C95
:1057A000D12C7601A7019601A4CE10923903198657
:1057B0001A861B861C861D821E821F821886E1CCDB
:1057C00010E000E0312C212CBDCE10E000E0212CB7
:1057D000312C42CDCF92DF92EF92FF92CF93DF93A5
:1057E000EC01C880D980EA80FB808BE892E10E94BE
:1057F0006381C701B6010E94FD82CC80DD80EE800E
:10580000FF808EEE9EE20E946381C701B6010E9476
:10581000FD82C884D984EA84FB848AEE9EE20E94D9
:105820006381C701B6010E94FD828AE0DF91CF91BA
:10583000FF90EF90DF90CF900C945C81BC012091A1
:10584000F2023091F3024091F2025091F3022417D8
:10585000350731F481E02617370709F080E0089515
:105860009A01F1CF0F930FB70F9300916E000F9332
:105870000B7F00936E0000916F000D7F00936F000F
:105880000F930BB70F930CB70F921F922F933F9369
:105890004F935F936F937F938F939F93AF93BF9338
:1058A000EF93FF9311240E94F92FFF91EF91BF9185
:1058B000AF919F918F917F916F915F914F913F91A8
:1058C0002F911F900F900CBF0F910BBF0F91026093
:1058D000F89400936F000F9100936E000F910FBF2B
:1058E0000F91189580912C0580FF23C045988FEF6C
:1058F0008093A80280912C05869580FF1DC0479853
:105900008FEF8093A90280912C058695869580FF64
:1059100016C02A9A8FEF8093AA0280912C05869553
:105920008695869580FF0EC028988FEF8093AB02F6
:105930000895459A81E0DCCF479A81E0E2CF2A982A
:1059400081E0E9CF289A81E0F1CFAF92BF92CF9268
:10595000DF92EF92FF920F931F93CF93DF93C6E0F6
:10596000DCE009E217E086E1A82E8CE0B82EC12C1D
:10597000D12C7601C39469917991899199910E9472
:10598000FEE0288939894A895B890E945FE10E948B
:105990007AE8F80161937193819391938F01C61610
:1059A000D706E806F90610F46B017C01AC16BD06BB
:1059B00011F76FEF7FEFCB01A70196010E9441E73E
:1059C0002093390730933A0740933B0750933C07A5
:1059D000DF91CF911F910F91FF90EF90DF90CF90CB
:1059E000BF90AF9008959091F50E8091F60E9813A8
:1059F00006C08091030C9091040C892B19F00E9431
:105A00009589F1CF08959091F50E8091F60E981337
:105A100008C08091030C9091040C892B11F40C9414
:105A200060800E949589EFCF4F925F926F927F9234
:105A30008F929F92AF92BF92CF92DF92EF92FF929E
:105A40000F931F93CF93DF93CDB7DEB76A970FB64F
:105A5000F894DEBF0FBECDBF9A8F898F5B018A019C
:105A6000DC01D6966D917D918D919C91D9970E9484
:105A7000FEE06B017C01F50120813181428153817F
:105A80000E945FE10E94EAE72B013C01D8012D91C1
:105A90003D914D915C91C701B6010E945FE10E946A
:105AA000EAE74B015C01C301B2010E947AE8698B0D
:105AB0007A8B8B8B9C8B683771058105910540F43F
:105AC00028E730E040E050E0298B3A8B4B8B5C8B31
:105AD000C501B4010E947AE86D877E878F87988B15
